{
  "_format": "hh-sol-artifact-1",
  "contractName": "NFTCollection",
  "sourceName": "contracts/NFTCollection.sol",
  "abi": [
    {
      "inputs": [
        {
          "internalType": "string",
          "name": "name",
          "type": "string"
        },
        {
          "internalType": "string",
          "name": "symbol",
          "type": "string"
        },
        {
          "internalType": "uint256",
          "name": "_mintPrice",
          "type": "uint256"
        },
        {
          "internalType": "uint256",
          "name": "_maxSupply",
          "type": "uint256"
        },
        {
          "internalType": "string",
          "name": "_initialBaseURI",
          "type": "string"
        }
      ],
      "stateMutability": "nonpayable",
      "type": "constructor"
    },
    {
      "inputs": [
        {
          "internalType": "address",
          "name": "sender",
          "type": "address"
        },
        {
          "internalType": "uint256",
          "name": "tokenId",
          "type": "uint256"
        },
        {
          "internalType": "address",
          "name": "owner",
          "type": "address"
        }
      ],
      "name": "ERC721IncorrectOwner",
      "type": "error"
    },
    {
      "inputs": [
        {
          "internalType": "address",
          "name": "operator",
          "type": "address"
        },
        {
          "internalType": "uint256",
          "name": "tokenId",
          "type": "uint256"
        }
      ],
      "name": "ERC721InsufficientApproval",
      "type": "error"
    },
    {
      "inputs": [
        {
          "internalType": "address",
          "name": "approver",
          "type": "address"
        }
      ],
      "name": "ERC721InvalidApprover",
      "type": "error"
    },
    {
      "inputs": [
        {
          "internalType": "address",
          "name": "operator",
          "type": "address"
        }
      ],
      "name": "ERC721InvalidOperator",
      "type": "error"
    },
    {
      "inputs": [
        {
          "internalType": "address",
          "name": "owner",
          "type": "address"
        }
      ],
      "name": "ERC721InvalidOwner",
      "type": "error"
    },
    {
      "inputs": [
        {
          "internalType": "address",
          "name": "receiver",
          "type": "address"
        }
      ],
      "name": "ERC721InvalidReceiver",
      "type": "error"
    },
    {
      "inputs": [
        {
          "internalType": "address",
          "name": "sender",
          "type": "address"
        }
      ],
      "name": "ERC721InvalidSender",
      "type": "error"
    },
    {
      "inputs": [
        {
          "internalType": "uint256",
          "name": "tokenId",
          "type": "uint256"
        }
      ],
      "name": "ERC721NonexistentToken",
      "type": "error"
    },
    {
      "inputs": [
        {
          "internalType": "address",
          "name": "owner",
          "type": "address"
        }
      ],
      "name": "OwnableInvalidOwner",
      "type": "error"
    },
    {
      "inputs": [
        {
          "internalType": "address",
          "name": "account",
          "type": "address"
        }
      ],
      "name": "OwnableUnauthorizedAccount",
      "type": "error"
    },
    {
      "inputs": [],
      "name": "ReentrancyGuardReentrantCall",
      "type": "error"
    },
    {
      "anonymous": false,
      "inputs": [
        {
          "indexed": true,
          "internalType": "address",
          "name": "owner",
          "type": "address"
        },
        {
          "indexed": true,
          "internalType": "address",
          "name": "approved",
          "type": "address"
        },
        {
          "indexed": true,
          "internalType": "uint256",
          "name": "tokenId",
          "type": "uint256"
        }
      ],
      "name": "Approval",
      "type": "event"
    },
    {
      "anonymous": false,
      "inputs": [
        {
          "indexed": true,
          "internalType": "address",
          "name": "owner",
          "type": "address"
        },
        {
          "indexed": true,
          "internalType": "address",
          "name": "operator",
          "type": "address"
        },
        {
          "indexed": false,
          "internalType": "bool",
          "name": "approved",
          "type": "bool"
        }
      ],
      "name": "ApprovalForAll",
      "type": "event"
    },
    {
      "anonymous": false,
      "inputs": [
        {
          "indexed": false,
          "internalType": "string",
          "name": "newBaseURI",
          "type": "string"
        }
      ],
      "name": "BaseURIUpdated",
      "type": "event"
    },
    {
      "anonymous": false,
      "inputs": [
        {
          "indexed": false,
          "internalType": "uint256",
          "name": "_fromTokenId",
          "type": "uint256"
        },
        {
          "indexed": false,
          "internalType": "uint256",
          "name": "_toTokenId",
          "type": "uint256"
        }
      ],
      "name": "BatchMetadataUpdate",
      "type": "event"
    },
    {
      "anonymous": false,
      "inputs": [
        {
          "indexed": false,
          "internalType": "uint256",
          "name": "_tokenId",
          "type": "uint256"
        }
      ],
      "name": "MetadataUpdate",
      "type": "event"
    },
    {
      "anonymous": false,
      "inputs": [
        {
          "indexed": false,
          "internalType": "uint256",
          "name": "newPrice",
          "type": "uint256"
        }
      ],
      "name": "MintPriceUpdated",
      "type": "event"
    },
    {
      "anonymous": false,
      "inputs": [
        {
          "indexed": false,
          "internalType": "bool",
          "name": "enabled",
          "type": "bool"
        }
      ],
      "name": "MintingToggled",
      "type": "event"
    },
    {
      "anonymous": false,
      "inputs": [
        {
          "indexed": true,
          "internalType": "address",
          "name": "to",
          "type": "address"
        },
        {
          "indexed": true,
          "internalType": "uint256",
          "name": "tokenId",
          "type": "uint256"
        },
        {
          "indexed": false,
          "internalType": "string",
          "name": "tokenURI",
          "type": "string"
        }
      ],
      "name": "NFTMinted",
      "type": "event"
    },
    {
      "anonymous": false,
      "inputs": [
        {
          "indexed": true,
          "internalType": "address",
          "name": "previousOwner",
          "type": "address"
        },
        {
          "indexed": true,
          "internalType": "address",
          "name": "newOwner",
          "type": "address"
        }
      ],
      "name": "OwnershipTransferred",
      "type": "event"
    },
    {
      "anonymous": false,
      "inputs": [
        {
          "indexed": true,
          "internalType": "address",
          "name": "from",
          "type": "address"
        },
        {
          "indexed": true,
          "internalType": "address",
          "name": "to",
          "type": "address"
        },
        {
          "indexed": true,
          "internalType": "uint256",
          "name": "tokenId",
          "type": "uint256"
        }
      ],
      "name": "Transfer",
      "type": "event"
    },
    {
      "inputs": [
        {
          "internalType": "address",
          "name": "to",
          "type": "address"
        },
        {
          "internalType": "uint256",
          "name": "tokenId",
          "type": "uint256"
        }
      ],
      "name": "approve",
      "outputs": [],
      "stateMutability": "nonpayable",
      "type": "function"
    },
    {
      "inputs": [
        {
          "internalType": "address",
          "name": "owner",
          "type": "address"
        }
      ],
      "name": "balanceOf",
      "outputs": [
        {
          "internalType": "uint256",
          "name": "",
          "type": "uint256"
        }
      ],
      "stateMutability": "view",
      "type": "function"
    },
    {
      "inputs": [
        {
          "internalType": "address[]",
          "name": "recipients",
          "type": "address[]"
        },
        {
          "internalType": "string[]",
          "name": "tokenURIs",
          "type": "string[]"
        }
      ],
      "name": "batchMint",
      "outputs": [],
      "stateMutability": "payable",
      "type": "function"
    },
    {
      "inputs": [
        {
          "internalType": "uint256",
          "name": "tokenId",
          "type": "uint256"
        }
      ],
      "name": "getApproved",
      "outputs": [
        {
          "internalType": "address",
          "name": "",
          "type": "address"
        }
      ],
      "stateMutability": "view",
      "type": "function"
    },
    {
      "inputs": [],
      "name": "getCurrentTokenId",
      "outputs": [
        {
          "internalType": "uint256",
          "name": "",
          "type": "uint256"
        }
      ],
      "stateMutability": "view",
      "type": "function"
    },
    {
      "inputs": [
        {
          "internalType": "address",
          "name": "owner",
          "type": "address"
        },
        {
          "internalType": "address",
          "name": "operator",
          "type": "address"
        }
      ],
      "name": "isApprovedForAll",
      "outputs": [
        {
          "internalType": "bool",
          "name": "",
          "type": "bool"
        }
      ],
      "stateMutability": "view",
      "type": "function"
    },
    {
      "inputs": [],
      "name": "maxMintPerAddress",
      "outputs": [
        {
          "internalType": "uint256",
          "name": "",
          "type": "uint256"
        }
      ],
      "stateMutability": "view",
      "type": "function"
    },
    {
      "inputs": [],
      "name": "maxSupply",
      "outputs": [
        {
          "internalType": "uint256",
          "name": "",
          "type": "uint256"
        }
      ],
      "stateMutability": "view",
      "type": "function"
    },
    {
      "inputs": [
        {
          "internalType": "address",
          "name": "to",
          "type": "address"
        },
        {
          "internalType": "string",
          "name": "tokenURI",
          "type": "string"
        }
      ],
      "name": "mint",
      "outputs": [],
      "stateMutability": "payable",
      "type": "function"
    },
    {
      "inputs": [],
      "name": "mintPrice",
      "outputs": [
        {
          "internalType": "uint256",
          "name": "",
          "type": "uint256"
        }
      ],
      "stateMutability": "view",
      "type": "function"
    },
    {
      "inputs": [
        {
          "internalType": "address",
          "name": "",
          "type": "address"
        }
      ],
      "name": "mintedByAddress",
      "outputs": [
        {
          "internalType": "uint256",
          "name": "",
          "type": "uint256"
        }
      ],
      "stateMutability": "view",
      "type": "function"
    },
    {
      "inputs": [],
      "name": "mintingEnabled",
      "outputs": [
        {
          "internalType": "bool",
          "name": "",
          "type": "bool"
        }
      ],
      "stateMutability": "view",
      "type": "function"
    },
    {
      "inputs": [],
      "name": "name",
      "outputs": [
        {
          "internalType": "string",
          "name": "",
          "type": "string"
        }
      ],
      "stateMutability": "view",
      "type": "function"
    },
    {
      "inputs": [],
      "name": "owner",
      "outputs": [
        {
          "internalType": "address",
          "name": "",
          "type": "address"
        }
      ],
      "stateMutability": "view",
      "type": "function"
    },
    {
      "inputs": [
        {
          "internalType": "address",
          "name": "to",
          "type": "address"
        },
        {
          "internalType": "string",
          "name": "tokenURI",
          "type": "string"
        }
      ],
      "name": "ownerMint",
      "outputs": [],
      "stateMutability": "nonpayable",
      "type": "function"
    },
    {
      "inputs": [
        {
          "internalType": "uint256",
          "name": "tokenId",
          "type": "uint256"
        }
      ],
      "name": "ownerOf",
      "outputs": [
        {
          "internalType": "address",
          "name": "",
          "type": "address"
        }
      ],
      "stateMutability": "view",
      "type": "function"
    },
    {
      "inputs": [],
      "name": "renounceOwnership",
      "outputs": [],
      "stateMutability": "nonpayable",
      "type": "function"
    },
    {
      "inputs": [
        {
          "internalType": "address",
          "name": "from",
          "type": "address"
        },
        {
          "internalType": "address",
          "name": "to",
          "type": "address"
        },
        {
          "internalType": "uint256",
          "name": "tokenId",
          "type": "uint256"
        }
      ],
      "name": "safeTransferFrom",
      "outputs": [],
      "stateMutability": "nonpayable",
      "type": "function"
    },
    {
      "inputs": [
        {
          "internalType": "address",
          "name": "from",
          "type": "address"
        },
        {
          "internalType": "address",
          "name": "to",
          "type": "address"
        },
        {
          "internalType": "uint256",
          "name": "tokenId",
          "type": "uint256"
        },
        {
          "internalType": "bytes",
          "name": "data",
          "type": "bytes"
        }
      ],
      "name": "safeTransferFrom",
      "outputs": [],
      "stateMutability": "nonpayable",
      "type": "function"
    },
    {
      "inputs": [
        {
          "internalType": "address",
          "name": "operator",
          "type": "address"
        },
        {
          "internalType": "bool",
          "name": "approved",
          "type": "bool"
        }
      ],
      "name": "setApprovalForAll",
      "outputs": [],
      "stateMutability": "nonpayable",
      "type": "function"
    },
    {
      "inputs": [
        {
          "internalType": "string",
          "name": "_newBaseURI",
          "type": "string"
        }
      ],
      "name": "setBaseURI",
      "outputs": [],
      "stateMutability": "nonpayable",
      "type": "function"
    },
    {
      "inputs": [
        {
          "internalType": "uint256",
          "name": "_maxMint",
          "type": "uint256"
        }
      ],
      "name": "setMaxMintPerAddress",
      "outputs": [],
      "stateMutability": "nonpayable",
      "type": "function"
    },
    {
      "inputs": [
        {
          "internalType": "uint256",
          "name": "_newPrice",
          "type": "uint256"
        }
      ],
      "name": "setMintPrice",
      "outputs": [],
      "stateMutability": "nonpayable",
      "type": "function"
    },
    {
      "inputs": [
        {
          "internalType": "bytes4",
          "name": "interfaceId",
          "type": "bytes4"
        }
      ],
      "name": "supportsInterface",
      "outputs": [
        {
          "internalType": "bool",
          "name": "",
          "type": "bool"
        }
      ],
      "stateMutability": "view",
      "type": "function"
    },
    {
      "inputs": [],
      "name": "symbol",
      "outputs": [
        {
          "internalType": "string",
          "name": "",
          "type": "string"
        }
      ],
      "stateMutability": "view",
      "type": "function"
    },
    {
      "inputs": [],
      "name": "toggleMinting",
      "outputs": [],
      "stateMutability": "nonpayable",
      "type": "function"
    },
    {
      "inputs": [
        {
          "internalType": "uint256",
          "name": "tokenId",
          "type": "uint256"
        }
      ],
      "name": "tokenURI",
      "outputs": [
        {
          "internalType": "string",
          "name": "",
          "type": "string"
        }
      ],
      "stateMutability": "view",
      "type": "function"
    },
    {
      "inputs": [],
      "name": "totalSupply",
      "outputs": [
        {
          "internalType": "uint256",
          "name": "",
          "type": "uint256"
        }
      ],
      "stateMutability": "view",
      "type": "function"
    },
    {
      "inputs": [
        {
          "internalType": "address",
          "name": "from",
          "type": "address"
        },
        {
          "internalType": "address",
          "name": "to",
          "type": "address"
        },
        {
          "internalType": "uint256",
          "name": "tokenId",
          "type": "uint256"
        }
      ],
      "name": "transferFrom",
      "outputs": [],
      "stateMutability": "nonpayable",
      "type": "function"
    },
    {
      "inputs": [
        {
          "internalType": "address",
          "name": "newOwner",
          "type": "address"
        }
      ],
      "name": "transferOwnership",
      "outputs": [],
      "stateMutability": "nonpayable",
      "type": "function"
    },
    {
      "inputs": [],
      "name": "withdraw",
      "outputs": [],
      "stateMutability": "nonpayable",
      "type": "function"
    }
  ],
  "bytecode": "0x608060405260016009819055600d805460ff19169091179055600a600f553480156200002a57600080fd5b506040516200256f3803806200256f8339810160408190526200004d91620001eb565b33858560006200005e83826200031f565b5060016200006d82826200031f565b5050506001600160a01b0381166200009f57604051631e4fbdf760e01b81526000600482015260240160405180910390fd5b620000aa81620000d4565b506001600855600a839055600b829055600c620000c882826200031f565b505050505050620003eb565b600780546001600160a01b038381166001600160a01b0319831681179093556040519116919082907f8be0079c531659141344cd1fd0a4f28419497f9722a3daafe3b4186f6b6457e090600090a35050565b634e487b7160e01b600052604160045260246000fd5b600082601f8301126200014e57600080fd5b81516001600160401b03808211156200016b576200016b62000126565b604051601f8301601f19908116603f0116810190828211818310171562000196576200019662000126565b81604052838152602092508683858801011115620001b357600080fd5b600091505b83821015620001d75785820183015181830184015290820190620001b8565b600093810190920192909252949350505050565b600080600080600060a086880312156200020457600080fd5b85516001600160401b03808211156200021c57600080fd5b6200022a89838a016200013c565b965060208801519150808211156200024157600080fd5b6200024f89838a016200013c565b9550604088015194506060880151935060808801519150808211156200027457600080fd5b5062000283888289016200013c565b9150509295509295909350565b600181811c90821680620002a557607f821691505b602082108103620002c657634e487b7160e01b600052602260045260246000fd5b50919050565b601f8211156200031a57600081815260208120601f850160051c81016020861015620002f55750805b601f850160051c820191505b81811015620003165782815560010162000301565b5050505b505050565b81516001600160401b038111156200033b576200033b62000126565b62000353816200034c845462000290565b84620002cc565b602080601f8311600181146200038b5760008415620003725750858301515b600019600386901b1c1916600185901b17855562000316565b600085815260208120601f198616915b82811015620003bc578886015182559484019460019091019084016200039b565b5085821015620003db5787850151600019600388901b60f8161c191681555b5050505050600190811b01905550565b61217480620003fb6000396000f3fe6080604052600436106101d85760003560e01c806364ba144e11610102578063a22cb46511610095578063d5abeb0111610064578063d5abeb0114610511578063e985e9c514610527578063f2fde38b14610547578063f4a0a5281461056757600080fd5b8063a22cb4651461049e578063b88d4fde146104be578063c87b56dd146104de578063d0def521146104fe57600080fd5b80637d55094d116100d15780637d55094d1461043c5780638da5cb5b1461045157806395d89b411461046f5780639fd6db121461048457600080fd5b806364ba144e146103de5780636817c76c146103f157806370a0823114610407578063715018a61461042757600080fd5b80633ca63f2c1161017a57806355f804b31161014957806355f804b3146103735780635618923614610393578063572849c4146103a85780636352211e146103be57600080fd5b80633ca63f2c146102f15780633ccfd60b1461031e57806341d5b8031461033357806342842e0e1461035357600080fd5b8063095ea7b3116101b6578063095ea7b31461026c57806318160ddd1461028e5780631e14d44b146102b157806323b872dd146102d157600080fd5b806301ffc9a7146101dd57806306fdde0314610212578063081812fc14610234575b600080fd5b3480156101e957600080fd5b506101fd6101f8366004611a26565b610587565b60405190151581526020015b60405180910390f35b34801561021e57600080fd5b50610227610598565b6040516102099190611a93565b34801561024057600080fd5b5061025461024f366004611aa6565b61062a565b6040516001600160a01b039091168152602001610209565b34801561027857600080fd5b5061028c610287366004611adb565b610653565b005b34801561029a57600080fd5b506102a3610662565b604051908152602001610209565b3480156102bd57600080fd5b5061028c6102cc366004611aa6565b610678565b3480156102dd57600080fd5b5061028c6102ec366004611b05565b610685565b3480156102fd57600080fd5b506102a361030c366004611b41565b600e6020526000908152604090205481565b34801561032a57600080fd5b5061028c610715565b34801561033f57600080fd5b5061028c61034e366004611c1b565b61080a565b34801561035f57600080fd5b5061028c61036e366004611b05565b6108cd565b34801561037f57600080fd5b5061028c61038e366004611c69565b6108ed565b34801561039f57600080fd5b506009546102a3565b3480156103b457600080fd5b506102a3600f5481565b3480156103ca57600080fd5b506102546103d9366004611aa6565b61093c565b61028c6103ec366004611d52565b610947565b3480156103fd57600080fd5b506102a3600a5481565b34801561041357600080fd5b506102a3610422366004611b41565b610cca565b34801561043357600080fd5b5061028c610d12565b34801561044857600080fd5b5061028c610d26565b34801561045d57600080fd5b506007546001600160a01b0316610254565b34801561047b57600080fd5b50610227610d7b565b34801561049057600080fd5b50600d546101fd9060ff1681565b3480156104aa57600080fd5b5061028c6104b9366004611e08565b610d8a565b3480156104ca57600080fd5b5061028c6104d9366004611e44565b610d95565b3480156104ea57600080fd5b506102276104f9366004611aa6565b610dad565b61028c61050c366004611c1b565b610db8565b34801561051d57600080fd5b506102a3600b5481565b34801561053357600080fd5b506101fd610542366004611ec0565b610fae565b34801561055357600080fd5b5061028c610562366004611b41565b610fdc565b34801561057357600080fd5b5061028c610582366004611aa6565b61101a565b600061059282611057565b92915050565b6060600080546105a790611ef3565b80601f01602080910402602001604051908101604052809291908181526020018280546105d390611ef3565b80156106205780601f106105f557610100808354040283529160200191610620565b820191906000526020600020905b81548152906001019060200180831161060357829003601f168201915b5050505050905090565b60006106358261107c565b506000828152600460205260409020546001600160a01b0316610592565b61065e8282336110b5565b5050565b600060016009546106739190611f43565b905090565b6106806110c2565b600f55565b6001600160a01b0382166106b457604051633250574960e11b8152600060048201526024015b60405180910390fd5b60006106c18383336110ef565b9050836001600160a01b0316816001600160a01b03161461070f576040516364283d7b60e01b81526001600160a01b03808616600483015260248201849052821660448201526064016106ab565b50505050565b61071d6110c2565b47806107625760405162461bcd60e51b81526020600482015260146024820152734e6f2066756e647320746f20776974686472617760601b60448201526064016106ab565b60006107766007546001600160a01b031690565b6001600160a01b03168260405160006040518083038185875af1925050503d80600081146107c0576040519150601f19603f3d011682016040523d82523d6000602084013e6107c5565b606091505b505090508061065e5760405162461bcd60e51b815260206004820152601160248201527015da5d1a191c985dd85b0819985a5b1959607a1b60448201526064016106ab565b6108126110c2565b600b54600954111561085b5760405162461bcd60e51b815260206004820152601260248201527113585e081cdd5c1c1b1e481c995858da195960721b60448201526064016106ab565b60098054908190600061086d83611f56565b919050555061087c83826111e8565b6108868183611202565b80836001600160a01b03167fd35bb95e09c04b219e35047ce7b7b300e3384264ef84a40456943dbc0fc17c14846040516108c09190611a93565b60405180910390a3505050565b6108e883838360405180602001604052806000815250610d95565b505050565b6108f56110c2565b600c6109018282611fb5565b507f6741b2fc379fad678116fe3d4d4b9a1a184ab53ba36b86ad0fa66340b1ab41ad816040516109319190611a93565b60405180910390a150565b60006105928261107c565b61094f611252565b600d5460ff166109a15760405162461bcd60e51b815260206004820152601d60248201527f4d696e74696e672069732063757272656e746c792064697361626c656400000060448201526064016106ab565b80518251146109eb5760405162461bcd60e51b8152602060048201526016602482015275082e4e4c2f2e640d8cadccee8d040dad2e6dac2e8c6d60531b60448201526064016106ab565b6000825111610a2b5760405162461bcd60e51b815260206004820152600c60248201526b456d7074792061727261797360a01b60448201526064016106ab565b8151600a54610a3a9190612075565b341015610a805760405162461bcd60e51b8152602060048201526014602482015273125b9cdd59999a58da595b9d081c185e5b595b9d60621b60448201526064016106ab565b600b5460018351600954610a94919061208c565b610a9e9190611f43565b1115610aec5760405162461bcd60e51b815260206004820152601760248201527f576f756c6420657863656564206d617820737570706c7900000000000000000060448201526064016106ab565b60005b8251811015610cbf57600f54600e6000858481518110610b1157610b1161209f565b60200260200101516001600160a01b03166001600160a01b031681526020019081526020016000205410610b875760405162461bcd60e51b815260206004820152601c60248201527f4d6178206d696e7420706572206164647265737320726561636865640000000060448201526064016106ab565b600980549081906000610b9983611f56565b9190505550610bc1848381518110610bb357610bb361209f565b6020026020010151826111e8565b610be481848481518110610bd757610bd761209f565b6020026020010151611202565b600e6000858481518110610bfa57610bfa61209f565b60200260200101516001600160a01b03166001600160a01b031681526020019081526020016000206000815480929190610c3390611f56565b919050555080848381518110610c4b57610c4b61209f565b60200260200101516001600160a01b03167fd35bb95e09c04b219e35047ce7b7b300e3384264ef84a40456943dbc0fc17c14858581518110610c8f57610c8f61209f565b6020026020010151604051610ca49190611a93565b60405180910390a35080610cb781611f56565b915050610aef565b5061065e6001600855565b60006001600160a01b038216610cf6576040516322718ad960e21b8152600060048201526024016106ab565b506001600160a01b031660009081526003602052604090205490565b610d1a6110c2565b610d24600061127c565b565b610d2e6110c2565b600d805460ff8082161560ff1990921682179092556040519116151581527f6bdfe227d5db299c59aa56d5f846f40dbd73b271aaa78e18ed74fc3e00b8aa6b9060200160405180910390a1565b6060600180546105a790611ef3565b61065e3383836112ce565b610da0848484610685565b61070f3385858585611365565b606061059282611490565b610dc0611252565b600d5460ff16610e125760405162461bcd60e51b815260206004820152601d60248201527f4d696e74696e672069732063757272656e746c792064697361626c656400000060448201526064016106ab565b600b546009541115610e5b5760405162461bcd60e51b815260206004820152601260248201527113585e081cdd5c1c1b1e481c995858da195960721b60448201526064016106ab565b600a54341015610ea45760405162461bcd60e51b8152602060048201526014602482015273125b9cdd59999a58da595b9d081c185e5b595b9d60621b60448201526064016106ab565b600f546001600160a01b0383166000908152600e602052604090205410610f0d5760405162461bcd60e51b815260206004820152601c60248201527f4d6178206d696e7420706572206164647265737320726561636865640000000060448201526064016106ab565b600980549081906000610f1f83611f56565b9190505550610f2e83826111e8565b610f388183611202565b6001600160a01b0383166000908152600e60205260408120805491610f5c83611f56565b919050555080836001600160a01b03167fd35bb95e09c04b219e35047ce7b7b300e3384264ef84a40456943dbc0fc17c1484604051610f9b9190611a93565b60405180910390a35061065e6001600855565b6001600160a01b03918216600090815260056020908152604080832093909416825291909152205460ff1690565b610fe46110c2565b6001600160a01b03811661100e57604051631e4fbdf760e01b8152600060048201526024016106ab565b6110178161127c565b50565b6110226110c2565b600a8190556040518181527f525b762709cc2a983aec5ccdfd807a061f993c91090b5bcd7da92ca254976aaa90602001610931565b60006001600160e01b03198216632483248360e11b1480610592575061059282611594565b6000818152600260205260408120546001600160a01b03168061059257604051637e27328960e01b8152600481018490526024016106ab565b6108e883838360016115e4565b6007546001600160a01b03163314610d245760405163118cdaa760e01b81523360048201526024016106ab565b6000828152600260205260408120546001600160a01b039081169083161561111c5761111c8184866116ea565b6001600160a01b0381161561115a576111396000856000806115e4565b6001600160a01b038116600090815260036020526040902080546000190190555b6001600160a01b03851615611189576001600160a01b0385166000908152600360205260409020805460010190555b60008481526002602052604080822080546001600160a01b0319166001600160a01b0389811691821790925591518793918516917fddf252ad1be2c89b69c2b068fc378daa952ba7f163c4a11628f55a4df523b3ef91a4949350505050565b61065e82826040518060200160405280600081525061174e565b600082815260066020526040902061121a8282611fb5565b506040518281527ff8e1a15aba9398e019f0b49df1a4fde98ee17ae345cb5f6b5e2c27f5033e8ce79060200160405180910390a15050565b60026008540361127557604051633ee5aeb560e01b815260040160405180910390fd5b6002600855565b600780546001600160a01b038381166001600160a01b0319831681179093556040519116919082907f8be0079c531659141344cd1fd0a4f28419497f9722a3daafe3b4186f6b6457e090600090a35050565b6001600160a01b03821661130057604051630b61174360e31b81526001600160a01b03831660048201526024016106ab565b6001600160a01b03838116600081815260056020908152604080832094871680845294825291829020805460ff191686151590811790915591519182527f17307eab39ab6107e8899845ad3d59bd9653f200f220920489ca2b5937696c3191016108c0565b6001600160a01b0383163b1561148957604051630a85bd0160e11b81526001600160a01b0384169063150b7a02906113a79088908890879087906004016120b5565b6020604051808303816000875af19250505080156113e2575060408051601f3d908101601f191682019092526113df918101906120f2565b60015b61144b573d808015611410576040519150601f19603f3d011682016040523d82523d6000602084013e611415565b606091505b50805160000361144357604051633250574960e11b81526001600160a01b03851660048201526024016106ab565b805181602001fd5b6001600160e01b03198116630a85bd0160e11b1461148757604051633250574960e11b81526001600160a01b03851660048201526024016106ab565b505b5050505050565b606061149b8261107c565b50600082815260066020526040812080546114b590611ef3565b80601f01602080910402602001604051908101604052809291908181526020018280546114e190611ef3565b801561152e5780601f106115035761010080835404028352916020019161152e565b820191906000526020600020905b81548152906001019060200180831161151157829003601f168201915b50505050509050600061153f611766565b90508051600003611551575092915050565b81511561158357808260405160200161156b92919061210f565b60405160208183030381529060405292505050919050565b61158c84611775565b949350505050565b60006001600160e01b031982166380ac58cd60e01b14806115c557506001600160e01b03198216635b5e139f60e01b145b8061059257506301ffc9a760e01b6001600160e01b0319831614610592565b80806115f857506001600160a01b03821615155b156116ba5760006116088461107c565b90506001600160a01b038316158015906116345750826001600160a01b0316816001600160a01b031614155b801561164757506116458184610fae565b155b156116705760405163a9fbf51f60e01b81526001600160a01b03841660048201526024016106ab565b81156116b85783856001600160a01b0316826001600160a01b03167f8c5be1e5ebec7d5bd14f71427d1e84f3dd0314c0f7b2291e5b200ac8c7c3b92560405160405180910390a45b505b5050600090815260046020526040902080546001600160a01b0319166001600160a01b0392909216919091179055565b6116f58383836117dd565b6108e8576001600160a01b03831661172357604051637e27328960e01b8152600481018290526024016106ab565b60405163177e802f60e01b81526001600160a01b0383166004820152602481018290526044016106ab565b6117588383611840565b6108e8336000858585611365565b6060600c80546105a790611ef3565b60606117808261107c565b50600061178b611766565b905060008151116117ab57604051806020016040528060008152506117d6565b806117b5846118a5565b6040516020016117c692919061210f565b6040516020818303038152906040525b9392505050565b60006001600160a01b0383161580159061158c5750826001600160a01b0316846001600160a01b0316148061181757506118178484610fae565b8061158c5750506000908152600460205260409020546001600160a01b03908116911614919050565b6001600160a01b03821661186a57604051633250574960e11b8152600060048201526024016106ab565b6000611878838360006110ef565b90506001600160a01b038116156108e8576040516339e3563760e11b8152600060048201526024016106ab565b606060006118b283611938565b600101905060008167ffffffffffffffff8111156118d2576118d2611b5c565b6040519080825280601f01601f1916602001820160405280156118fc576020820181803683370190505b5090508181016020015b600019016f181899199a1a9b1b9c1cb0b131b232b360811b600a86061a8153600a850494508461190657509392505050565b60008072184f03e93ff9f4daa797ed6e38ed64bf6a1f0160401b83106119775772184f03e93ff9f4daa797ed6e38ed64bf6a1f0160401b830492506040015b6d04ee2d6d415b85acef810000000083106119a3576d04ee2d6d415b85acef8100000000830492506020015b662386f26fc1000083106119c157662386f26fc10000830492506010015b6305f5e10083106119d9576305f5e100830492506008015b61271083106119ed57612710830492506004015b606483106119ff576064830492506002015b600a83106105925760010192915050565b6001600160e01b03198116811461101757600080fd5b600060208284031215611a3857600080fd5b81356117d681611a10565b60005b83811015611a5e578181015183820152602001611a46565b50506000910152565b60008151808452611a7f816020860160208601611a43565b601f01601f19169290920160200192915050565b6020815260006117d66020830184611a67565b600060208284031215611ab857600080fd5b5035919050565b80356001600160a01b0381168114611ad657600080fd5b919050565b60008060408385031215611aee57600080fd5b611af783611abf565b946020939093013593505050565b600080600060608486031215611b1a57600080fd5b611b2384611abf565b9250611b3160208501611abf565b9150604084013590509250925092565b600060208284031215611b5357600080fd5b6117d682611abf565b634e487b7160e01b600052604160045260246000fd5b604051601f8201601f1916810167ffffffffffffffff81118282101715611b9b57611b9b611b5c565b604052919050565b600067ffffffffffffffff831115611bbd57611bbd611b5c565b611bd0601f8401601f1916602001611b72565b9050828152838383011115611be457600080fd5b828260208301376000602084830101529392505050565b600082601f830112611c0c57600080fd5b6117d683833560208501611ba3565b60008060408385031215611c2e57600080fd5b611c3783611abf565b9150602083013567ffffffffffffffff811115611c5357600080fd5b611c5f85828601611bfb565b9150509250929050565b600060208284031215611c7b57600080fd5b813567ffffffffffffffff811115611c9257600080fd5b61158c84828501611bfb565b600067ffffffffffffffff821115611cb857611cb8611b5c565b5060051b60200190565b600082601f830112611cd357600080fd5b81356020611ce8611ce383611c9e565b611b72565b82815260059290921b84018101918181019086841115611d0757600080fd5b8286015b84811015611d4757803567ffffffffffffffff811115611d2b5760008081fd5b611d398986838b0101611bfb565b845250918301918301611d0b565b509695505050505050565b60008060408385031215611d6557600080fd5b823567ffffffffffffffff80821115611d7d57600080fd5b818501915085601f830112611d9157600080fd5b81356020611da1611ce383611c9e565b82815260059290921b84018101918181019089841115611dc057600080fd5b948201945b83861015611de557611dd686611abf565b82529482019490820190611dc5565b96505086013592505080821115611dfb57600080fd5b50611c5f85828601611cc2565b60008060408385031215611e1b57600080fd5b611e2483611abf565b915060208301358015158114611e3957600080fd5b809150509250929050565b60008060008060808587031215611e5a57600080fd5b611e6385611abf565b9350611e7160208601611abf565b925060408501359150606085013567ffffffffffffffff811115611e9457600080fd5b8501601f81018713611ea557600080fd5b611eb487823560208401611ba3565b91505092959194509250565b60008060408385031215611ed357600080fd5b611edc83611abf565b9150611eea60208401611abf565b90509250929050565b600181811c90821680611f0757607f821691505b602082108103611f2757634e487b7160e01b600052602260045260246000fd5b50919050565b634e487b7160e01b600052601160045260246000fd5b8181038181111561059257610592611f2d565b600060018201611f6857611f68611f2d565b5060010190565b601f8211156108e857600081815260208120601f850160051c81016020861015611f965750805b601f850160051c820191505b8181101561148757828155600101611fa2565b815167ffffffffffffffff811115611fcf57611fcf611b5c565b611fe381611fdd8454611ef3565b84611f6f565b602080601f83116001811461201857600084156120005750858301515b600019600386901b1c1916600185901b178555611487565b600085815260208120601f198616915b8281101561204757888601518255948401946001909101908401612028565b50858210156120655787850151600019600388901b60f8161c191681555b5050505050600190811b01905550565b808202811582820484141761059257610592611f2d565b8082018082111561059257610592611f2d565b634e487b7160e01b600052603260045260246000fd5b6001600160a01b03858116825284166020820152604081018390526080606082018190526000906120e890830184611a67565b9695505050505050565b60006020828403121561210457600080fd5b81516117d681611a10565b60008351612121818460208801611a43565b835190830190612135818360208801611a43565b0194935050505056fea26469706673582212203aeaed2e26c2e8635a38e79cfccf18c4c5c7deba2d399257bc8edb5bfd20d36064736f6c63430008140033",
  "linkReferences": {},
  "deployedLinkReferences": {}
}